S00F0000427261696C6C652E737265635A
S11300000C9455000C9472000C9472000C947200C1
S11300100C9472000C9472000C9472000C94720094
S11300200C9472000C9472000C9472000C94720084
S11300300C9472000C9472000C9472000C94720074
S11300400C9472000C9472000C9472000C94720064
S11300500C947200880178018A01A4017801780166
S1130060780178019C0178019E017801AC01780146
S1130070800178017C0178017E0178018C01A00166
S11300809401AA019001A6019201A8017A017801C4
S11300908601780182017801840178018E01A20130
S11300A09A01780196017801980111241FBECFE5C9
S11300B0D8E0DEBFCDBF10E0A0E6B0E0E2EFF3E0B1
S11300C002C005900D92A036B107D9F710E0A0E662
S11300D0B0E001C01D92A236B107E1F70E947E0094
S11300E00C94F7010C94000011BAA098A198A2985E
S11300F0A89AA99AAA9A8FEF82BB0895CF93DF9307
S1130100CDB7DEB7CC52D1400FB6F894DEBF0FBEE8
S1130110CDBF0E9474000E94F3000F2EF0E6FF2E64
S1130120F02D8E010B5F1F4F19821A821B821C82D5
S1130130F8018F2D11928A95E9F7CE018B599F4FC3
S11301400E945501482FCE018B599F4FBE016F5F0E
S11301507F4F50E00E94AE01CE0101960E94E4015F
S113016083B382FDFDCF0E94EF00DECFC39A83EDFF
S113017090E30197F1F700C00000C39808958AB393
S11301808F708ABBC29AC1980E94B6008AB3806FEE
S11301908ABBC2980895CF93C82F0E94BF00CBBBDF
S11301A088B3897F88BB89EF90E00197F1F700C09D
S11301B000000E94B600CF910895813039F4603177
S11301C068F4862F80580E94CB000895823031F461
S11301D0603120F4862F80540E94CB00089581E082
S11301E00E94CB00089587E893E10197F1F700C0DE
S11301F0000087B38E6087BB88B3817F88BB8FEF95
S11302008ABB85EA9EE00197F1F700C000000E94D6
S1130210EF0088E30E94CB0086E00E94CB0080E8D8
S11302200E94CB008FE00E94CB000895CF93C82F8B
S11302300E94BF00CBBBC298C19A89EF90E001979E
S1130240F1F700C000000E94B600CF910895EF922C
S1130250FF920F931F93CF93DF93082F192FC0E0C2
S1130260D0E0EE24FF2415C021960E941601C0316F
S1130270D10529F482E060E00E94DD000AC0C032AA
S1130280D10539F40E94EF0081E060E00E94DD00B6
S1130290E701F80181918F01882331F7DF91CF9134
S11302A01F910F91FF90EF900895E82FF92F80E0B0
S11302B090E00DC098990BC020B330E020953095A4
S11302C02F733070219331930196989BFECF23B303
S11302D021FDF0CF0895FC017497EB32F10540F451
S11302E0E65DFF4FEE0FFF1F0590F491E02D09949A
S11302F080E2089582E6089583E6089584E60895E9
S113030085E6089586E6089587E6089588E60895C3
S113031089E608958AE608958BE608958CE60895A3
S11303208DE608958EE608958FE6089580E7089592
S113033081E7089582E7089583E7089584E708959F
S113034085E7089586E7089587E7089588E708957F
S113035089E708958AE7089581E60895AF92BF92E8
S1130360CF92DF92EF92FF920F931F93CF93DF937D
S11303700F92CDB7DEB75B016A0114161506C4F4FB
S1130380E82EF92E00E010E0F701819191917F01B0
S11303900E946B018983C501BE016F5F7F4F41E0FD
S11303A050E00E94E7010F5F1F4F0C151D0561F718
S11303B00F90DF91CF911F910F91FF90EF90DF90FD
S11303C0CF90BF90AF9008950E9427010895FB013C
S11303D0DC010D900020E9F711974150504028F0BE
S11303E0019000200D92C9F708951C920895F89485
S10503F0FFCF39
S9030000FC
